{
  "transactions": [
    {
      "hash": "0x71281bfad857df8e93dc2848cc798c15371ffa93b7857829857a025f5c0fedca",
      "transactionType": "CALL",
      "contractName": "LinkToken",
      "contractAddress": "0x779877a7b0d9e8603169ddbd7836e478b4624789",
      "function": "transferAndCall(address,uint256,bytes)",
      "arguments": [
        "0x9DdfaCa8183c41ad55329BdeeD9F6A8d53168B1B",
        "3000000000000000000",
        "0xa13d0419fcccd7fdde78243216190a3d6b28138db2e955b5e7795f621f35333d"
      ],
      "transaction": {
        "from": "0x059e31ea8a88b62fe1603cce134ef7c1cc557395",
        "to": "0x779877a7b0d9e8603169ddbd7836e478b4624789",
        "gas": "0x1c1ff",
        "value": "0x0",
        "input": "0x4000aea00000000000000000000000009ddfaca8183c41ad55329bdeed9f6a8d53168b1b00000000000000000000000000000000000000000000000029a2241af62c000000000000000000000000000000000000000000000000000000000000000000600000000000000000000000000000000000000000000000000000000000000020a13d0419fcccd7fdde78243216190a3d6b28138db2e955b5e7795f621f35333d",
        "nonce": "0x13",
        "chainId": "0xaa36a7"
      },
      "additionalContracts": [],
      "isFixedGasLimit": false
    }
  ],
  "receipts": [
    {
      "status": "0x1",
      "cumulativeGasUsed": "0x73a3c4",
      "logs": [
        {
          "address": "0x779877a7b0d9e8603169ddbd7836e478b4624789",
          "topics": [
            "0xddf252ad1be2c89b69c2b068fc378daa952ba7f163c4a11628f55a4df523b3ef",
            "0x000000000000000000000000059e31ea8a88b62fe1603cce134ef7c1cc557395",
            "0x0000000000000000000000009ddfaca8183c41ad55329bdeed9f6a8d53168b1b"
          ],
          "data": "0x00000000000000000000000000000000000000000000000029a2241af62c0000",
          "blockHash": "0x88c86b505abd276cc924145bd960b99e68b10a5aa144f24560b79ad37c5037ea",
          "blockNumber": "0x62777d",
          "transactionHash": "0x71281bfad857df8e93dc2848cc798c15371ffa93b7857829857a025f5c0fedca",
          "transactionIndex": "0x3b",
          "logIndex": "0x81",
          "removed": false
        },
        {
          "address": "0x779877a7b0d9e8603169ddbd7836e478b4624789",
          "topics": [
            "0xe19260aff97b920c7df27010903aeb9c8d2be5d310a2c67824cf3f15396e4c16",
            "0x000000000000000000000000059e31ea8a88b62fe1603cce134ef7c1cc557395",
            "0x0000000000000000000000009ddfaca8183c41ad55329bdeed9f6a8d53168b1b"
          ],
          "data": "0x00000000000000000000000000000000000000000000000029a2241af62c000000000000000000000000000000000000000000000000000000000000000000400000000000000000000000000000000000000000000000000000000000000020a13d0419fcccd7fdde78243216190a3d6b28138db2e955b5e7795f621f35333d",
          "blockHash": "0x88c86b505abd276cc924145bd960b99e68b10a5aa144f24560b79ad37c5037ea",
          "blockNumber": "0x62777d",
          "transactionHash": "0x71281bfad857df8e93dc2848cc798c15371ffa93b7857829857a025f5c0fedca",
          "transactionIndex": "0x3b",
          "logIndex": "0x82",
          "removed": false
        },
        {
          "address": "0x9ddfaca8183c41ad55329bdeed9f6a8d53168b1b",
          "topics": [
            "0x1ced9348ff549fceab2ac57cd3a9de38edaaab274b725ee82c23e8fc8c4eec7a",
            "0xa13d0419fcccd7fdde78243216190a3d6b28138db2e955b5e7795f621f35333d"
          ],
          "data": "0x000000000000000000000000000000000000000000000000000000000000000000000000000000000000000000000000000000000000000029a2241af62c0000",
          "blockHash": "0x88c86b505abd276cc924145bd960b99e68b10a5aa144f24560b79ad37c5037ea",
          "blockNumber": "0x62777d",
          "transactionHash": "0x71281bfad857df8e93dc2848cc798c15371ffa93b7857829857a025f5c0fedca",
          "transactionIndex": "0x3b",
          "logIndex": "0x83",
          "removed": false
        }
      ],
      "logsBloom": "0x00000004000000000000000000000000000000000020000008000000020000000000000000000000000000000000000000008000000000000000000000000000000000000000000000800008000000000000000000000000000020000020000008000000000000000000000000000000000000000000000000000010000044000000000000000000000000010000800000000020000000000000000000000000000000000040000000000000010000000000000000000000000004000000000000000002000000000000000000000000000000000000000100000000000000000010000000000000800000000000000000000000000000000000000080000000",
      "type": "0x2",
      "transactionHash": "0x71281bfad857df8e93dc2848cc798c15371ffa93b7857829857a025f5c0fedca",
      "transactionIndex": "0x3b",
      "blockHash": "0x88c86b505abd276cc924145bd960b99e68b10a5aa144f24560b79ad37c5037ea",
      "blockNumber": "0x62777d",
      "gasUsed": "0x133b1",
      "effectiveGasPrice": "0x52f2edfbc",
      "from": "0x059e31ea8a88b62fe1603cce134ef7c1cc557395",
      "to": "0x779877a7b0d9e8603169ddbd7836e478b4624789",
      "contractAddress": null
    }
  ],
  "libraries": [],
  "pending": [],
  "returns": {},
  "timestamp": 1723017148,
  "chain": 11155111,
  "commit": "ddb8b0c"
}